S010000053504D5F746573742E7372656305
S11300000C9434000C9449000C9449000C9449005D
S11300100C9449000C9449000C9449000C94490038
S11300200C9449000C9449000C9449000C94490028
S11300300C9449000C9449000C9449000C94490018
S11300400C9449000C9449000C9449000C94490008
S11300500C9449000C9449000C9449000C944900F8
S11300600C9449000C94490011241FBECFEFD8E032
S1130070DEBFCDBF11E0A0E0B1E0ECE8F1E002C0EA
S113008005900D92A235B107D9F70E947C000C941B
S1130090C4000C9400002FB7F8949AE0E8B1EF7D07
S11300A0E8B900000000000000000000EDECF0E002
S11300B03197F1F70000E8B180FDE06280FFEF7D49
S11300C0E8B9089487959A9589F72FBF0895CF9337
S11300D0DF93EC018881882331F021960E944B0044
S11300E089918111FBCF8DE00E944B008AE00E9430
S11300F04B00DF91CF91089580E091E00E9467006A
S113010086E191E00E9467002FEF89E698E1215093
S113011080409040E1F700C0000082E291E00E943C
S113012067002FEF89E698E1215080409040E1F785
S113013000C000008EE291E00E9467002FEF89E684
S113014098E1215080409040E1F700C000008AE32C
S113015091E00E9467002FEF89E698E121508040EA
S11301609040E1F700C0000086E491E00E9467003F
S11301702FEF89E698E1215080409040E1F700C0DC
S10F0180000080E090E00895F894FFCFA8
S113018C53504D2074657374206F6E2061746D65CB
S113019C67613332380073746174656D656E7420F5
S11301AC310073746174656D656E74203200737400
S11301BC6174656D656E7420330073746174656D60
S11301CC656E7420340073746174656D656E74208F
S10501DC3500E8
S9030000FC
