:100000000C9492000C94BC000C94BC000C94BC00AA
:100010000C9436020C9436020C9436020C94360280
:100020000C94BC000C94BC000C94BC000C94BC0060
:100030000C94BC000C94BC000C94BC000C94BC0050
:100040000C94BC000C94BC000C94B9030C94BC0040
:100050000C94BC000C94BC000C94BC000C94BC0030
:100060000C94BC000C94BC000C94BC000C94BC0020
:100070000C947E060C94B4060C94BC000C94BC004A
:100080000C94BC000C94BC000C94BC00C004C304D1
:10009000B604BA04DA04DA04C704CB04D104D504E4
:1000A000000000010200090A000000000403080724
:1000B0000000000000000000000000000000000040
:1000C0000102040810204080010204081020408032
:1000D0000102040810204080010204081020408022
:1000E00002020202020202020404040404040404E0
:1000F00003030303030303030101010101010101E0
:100100000000200023002600290000002200250016
:1001100028002B0000002100240027002A001701DE
:10012000E8061E0111241FBECFEFD0E4DEBFCDBF15
:1001300011E0A0E0B1E0E6EFFFE000E00BBF02C09D
:1001400007900D92A636B107D9F722E0A6E6B1E0F6
:1001500001C01D92AF36B207E1F710E0C1E9D0E06F
:1001600004C02197FE010E94D107CF38D107C9F7FB
:100170000E9416070C94EE070C94000061E083E0E7
:100180000E94DB0461E082E00E94DB0460E082E028
:100190000E94170560E083E00E94170564EF71E09C
:1001A00080E090E00C94280461E083E00E94170551
:1001B00064E670E080E090E00E94280461E082E064
:1001C0000E94170564EF71E080E090E00E9428042F
:1001D00060E082E00E94170560E08EE00E94170553
:1001E00061E08FE00C94170540E05BE460E070E0B4
:1001F00086E691E00E94380326E040E05BE460E0A0
:1002000070E082ED91E00E941E0661E08FE00E94A6
:10021000DB0461E08EE00E94DB040E94BE0060E02F
:1002200071E086E691E00E9469070C94D40020E01A
:1002300046E065E086E691E00C940D0386E691E0E9
:100240000C94B40286E691E00E94D001892B49F01B
:1002500086E691E00E944101682F82ED91E00E94C4
:10026000D70582ED91E00E944705892B49F082ED88
:1002700091E00E946105682F86E691E00C9462018E
:1002800008952091C7013091C80128173907B9F4A2
:100290009091850180918601981789F0E091850100
:1002A000F0E0E957FE4F80812091850130E02F5F1B
:1002B0003F4F2F7333272093850190E008958FEFF0
:1002C0009FEF08951F93CF93DF93DC015C962D91F0
:1002D0003C915D972115310539F481E090E013964A
:1002E0009C938E9312973DC05196ED91FC9152973D
:1002F00050969C915097892F80951FB75E964C9190
:100300005E9741FB772770F941FD6095F894408135
:10031000772311F0492B01C048234083E90121973D
:10032000F1F748E0508160FF02C0592B01C058230B
:100330005083E9012197F1F76695415099F77723AA
:1003400021F090818923808303C08081982B908342
:100350001FBF5C968D919C915D970197F1F721E00D
:1003600030E0C901DF91CF911F9108952091C7011D
:100370003091C8012817390781F490918501809147
:100380008601981751F0E0918501F0E0E957FE4FA2
:100390008081082E000C990B08958FEF9FEF089530
:1003A0002091C7013091C8012817390771F4809155
:1003B00086012091850190E0805C9F4F821B91090E
:1003C00060E470E00E947C07089580E090E008956A
:1003D0002091C7013091C8012817390739F48FB728
:1003E000F89410928601109285018FBF0895E091D4
:1003F000C701F091C801E817F90769F4A389B48926
:100400009C918589809589238C931092C8011092C4
:10041000C70181E0089580E00895CF93DF93EC0158
:100420008A8D9B8D892BF1F08091C7019091C80135
:100430008C179D07B9F0009711F00E94F7018E8D7F
:100440008E7F8E8F1092860110928501D093C80105
:10045000C093C701EB89FC8990818D89892B8083AA
:1004600081E001C080E0DF91CF9108951F920F924B
:100470000FB60F9211240BB60F922F933F934F9309
:100480005F936F937F938F939F93AF93BF93EF93FC
:10049000FF93E091C701F091C801309709F451C072
:1004A000968DA685B785858591FF04C09C9189238B
:1004B00029F447C09C91892309F043C0A389B489DA
:1004C0009C918589809589238C938689978901974A
:1004D000F1F7608D718DA685B785558538E020E0F0
:1004E000CB010197F1F7822F90E095958795282F02
:1004F0004C91452309F02068315091F7868D81FD9C
:1005000020958091860190E001968F739927309114
:100510008501381749F0A0918601B0E0A957BE4F78
:100520002C938093860103C0868D8160868F828D97
:10053000938D0197F1F7A389B4899C918589892BC3
:100540008C93FF91EF91BF91AF919F918F917F918C
:100550006F915F914F913F912F910F900BBE0F9034
:100560000FBE0F901F90189528E331E0FC013183F6
:1005700020830C94F7011F93CF93DF93EC01162F88
:100580006E8D6695617081E06827812F0E94170546
:1005900061E0812F0E94DB04612F70E0FB01E054D9
:1005A000FF4FE491E88BFB01E052FF4FE491F0E054
:1005B000EE0FFF1FE65FFE4F859194919A8B898B1A
:1005C000DF91CF911F9108951F93CF93DF93EC019B
:1005D000162F60E0812F0E94DB048E8D81FD04C008
:1005E00061E0812F0E9417051C87612F70E0FB01DD
:1005F000E054FF4FE491ED87FB01E052FF4FE4919F
:10060000F0E0EE0FFF1FE050FF4F859194919F8720
:100610008E87DF91CF911F9108951F93CF93DF9322
:10062000EC01162F1B821A8288EE93E0A0E0B0E066
:100630008C839D83AE83BF8388E391E09983888315
:100640001F8A1E8A198E188E1B8E1A8E1D8E1C8E66
:100650008E8D8E7F20FB81F98E8F642FCE010E94BC
:10066000BB02612FCE01DF91CF911F910C94E40268
:10067000CF93DF93EC019A01AB011B8E1A8E198E7A
:10068000188E1F8A1E8A60E874E88EE190E00E944E
:10069000B207F9012430310518F0C901039702C0EF
:1006A00081E090E09D8F8C8F6C85603208F05CC09B
:1006B000C901969587958431910510F0439702C042
:1006C00081E090E09F8B8E8B369718F0C9010597DB
:1006D00002C081E090E0998F888FC901880F991F2F
:1006E000280F391F36952795369527952D303105DA
:1006F00018F02C50310902C021E030E03B8F2A8FE6
:1007000090916800683030F0603130F0683130F03E
:1007100081E005C082E003C088E001C084E0892B4D
:10072000809368008C85883038F0803140F08831C3
:1007300048F02BE630E008C02CE630E005C023E7A7
:1007400030E002C02DE630E03C8B2B8B877021E03F
:1007500030E0A90102C0440F551F8A95E2F74D8B86
:100760008C8D9D8D0197F1F7CE01DF91CF910C9487
:100770000D021F920F920FB60F9211242F933F93E9
:100780008F939F93AF93BF938091CA019091CB01B8
:10079000A091CC01B091CD013091C90126E0230F89
:1007A0002D3720F40296A11DB11D05C029E8230FA5
:1007B0000396A11DB11D2093C9018093CA01909396
:1007C000CB01A093CC01B093CD018091CE0190914B
:1007D000CF01A091D001B091D1010196A11DB11D11
:1007E0008093CE019093CF01A093D001B093D1011B
:1007F000BF91AF919F918F913F912F910F900FBE1D
:100800000F901F9018953FB7F8948091CE0190916A
:10081000CF01A091D001B091D10126B5A89B05C010
:100820002F3F19F00196A11DB11D3FBFBA2FA92F6F
:10083000982F8827820F911DA11DB11DBC01CD01EC
:1008400043E0660F771F881F991F4A95D1F70895D7
:100850008F929F92AF92BF92CF92DF92EF92FF92D0
:100860006B017C010E9403044B015C01C114D104A3
:10087000E104F10401F10E947B070E940304DC0102
:10088000CB0188199909AA09BB09883E9340A105A3
:10089000B10560F321E0C21AD108E108F10888EE41
:1008A000880E83E0981EA11CB11CC114D104E10480
:1008B000F10419F7DBCFFF90EF90DF90CF90BF905E
:1008C000AF909F908F900895789484B5826084BD96
:1008D00084B5816084BD85B5826085BD85B5816044
:1008E00085BDEEE6F0E0808181608083E1E8F0E0A4
:1008F0001082808182608083808181608083E0E8D3
:10090000F0E0808181608083E1EBF0E080818460B1
:100910008083E0EBF0E0808181608083E1E9F0E0BA
:10092000808182608083808181608083E0E9F0E063
:10093000808181608083EAE7F0E080818460808349
:1009400080818260808380818160808380818068F3
:1009500080831092C100089590E0FC013197EA3045
:10096000F10540F5EA5BFF4F0C94D10780918000C0
:100970008F7703C0809180008F7D809380000895E1
:1009800084B58F7702C084B58F7D84BD0895809132
:10099000B0008F7703C08091B0008F7D8093B0004E
:1009A0000895809190008F7703C0809190008F7D93
:1009B000809390000895CF93DF9390E0FC01E05482
:1009C000FF4F2491FC01E052FF4F8491882361F195
:1009D00090E0880F991FFC01EC5EFE4FC591D49109
:1009E000FC01E65FFE4FA591B491611109C09FB76C
:1009F000F8948881209582238883EC912E230BC064
:100A0000623061F49FB7F8943881822F80958323F8
:100A10008883EC912E2B2C939FBF06C08FB7F89440
:100A2000E8812E2B28838FBFDF91CF9108951F93EC
:100A3000CF93DF93282F30E0F901E056FF4F8491E8
:100A4000F901E054FF4FD491F901E052FF4FC491F6
:100A5000CC23C9F0162F81110E94AC04EC2FF0E0DA
:100A6000EE0FFF1FE65FFE4FA591B4918FB7F8948C
:100A7000111105C09C91ED2FE095E92302C0EC9186
:100A8000ED2BEC938FBFDF91CF911F910895FC0167
:100A9000918D228D892F90E0805C9F4F821B910960
:100AA0008F7399270895FC01918D828D981731F0ED
:100AB000828DE80FF11D858D90E008958FEF9FEFF7
:100AC0000895FC01918D828D981761F0828DDF0170
:100AD000A80FB11D5D968C91928D9F5F9F73928F31
:100AE00090E008958FEF9FEF089580E090E0892BCC
:100AF00041F080E090E0892B21F00E9400008111FC
:100B00000DC08EED96E0892B71F080E090E0892B8E
:100B100051F00E94DE06811104C008950E94000079
:100B2000F0CF0C9400000895FC01848DDF01A80F24
:100B3000B11DA35ABF4F2C91848D90E001968F7305
:100B40009927848FA689B7892C93A089B1898C9124
:100B500080648C93938D848D981306C00288F389EA
:100B6000E02D80818F7D80830895CF93DF93EC010A
:100B7000888D8823C9F0EA89FB89808185FD05C0BD
:100B8000A889B9898C9186FD0FC00FB607FCF5CFF7
:100B9000808185FFF2CFA889B9898C9185FFEDCF3F
:100BA000CE010E949405E7CFDF91CF910895EF9297
:100BB000FF920F931F93CF93DF93EC0181E0888F17
:100BC0009B8D8C8D981305C0E889F989808185FDFE
:100BD00024C0F62E0B8D10E00F5F1F4F0F731127EF
:100BE000E02E8C8DE8120CC00FB607FCFACFE88916
:100BF000F989808185FFF5CFCE010E949405F1CF60
:100C00008B8DFE01E80FF11DE35AFF4FF0820B8F31
:100C1000EA89FB898081806207C0EE89FF89608351
:100C2000E889F98980818064808381E090E0DF91A8
:100C3000CF911F910F91FF90EF900895CF92DF9287
:100C4000EF92FF921F93CF93DF93EC016A017B0138
:100C5000122F60E874E88EE190E0A70196010E94EF
:100C60009007DA01C9010197A109B109B695A795C5
:100C700097958795AC01E889F98982E080834115D1
:100C800080E15807A8F0E889F989108260E472E4ED
:100C90008FE090E0A70196010E949007BA01A90198
:100CA00041505109610971097695679557954795A6
:100CB000EC85FD855083EE85FF854083188EEC8999
:100CC000FD891083EA89FB89808180618083EA89BC
:100CD000FB89808188608083EA89FB8980818068C4
:100CE0008083EA89FB8980818F7D8083DF91CF912A
:100CF0001F91FF90EF90DF90CF9008951F920F9279
:100D00000FB60F9211240BB60F922F938F939F93D0
:100D1000EF93FF93E091E201F091E3018081E09194
:100D2000E801F091E90182FD12C090818091EB0110
:100D30008F5F8F732091EC01821751F0E091EB01EE
:100D4000F0E0EE52FE4F958F8093EB0101C0808161
:100D5000FF91EF919F918F912F910F900BBE0F906C
:100D60000FBE0F901F9018951F920F920FB60F9203
:100D700011240BB60F922F933F934F935F936F9372
:100D80007F938F939F93AF93BF93EF93FF9382EDE6
:100D900091E00E949405FF91EF91BF91AF919F91D7
:100DA0008F917F916F915F914F913F912F910F9014
:100DB0000BBE0F900FBE0F901F90189582ED91E023
:100DC0000E94470521E0892B09F420E0822F089535
:100DD000E2EDF1E01382128288EE93E0A0E0B0E051
:100DE00084839583A683B78388E491E0918380838D
:100DF0008DEC90E0958784878CEC90E097878687D0
:100E000088EC90E0918B808B89EC90E0938B828BC7
:100E10008AEC90E0958B848B8EEC90E0978B868BA0
:100E2000118E128E138E148E089508950E946404FC
:100E30000E9415070E94F400C5E7D5E00E94220138
:100E40002097E1F30E947505F9CFCF92DF92EF92E0
:100E5000FF920F931F93CF93DF936C017A018B0165
:100E6000C0E0D0E0CE15DF0589F0D8016D918D018D
:100E7000D601ED91FC910190F081E02DC60109951C
:100E8000892B11F47E0102C02196ECCFC701DF91BE
:100E9000CF911F910F91FF90EF90DF90CF90089529
:100EA0006115710579F0FB0101900020E9F7319798
:100EB000AF01461B570BDC01ED91FC910280F381E1
:100EC000E02D099480E090E0089564E571E00C94D1
:100ED00050070F931F93CF93DF93EC010E945007AD
:100EE0008C01CE010E946507800F911FDF91CF9189
:100EF0001F910F910895089597FB072E16F4009403
:100F000007D077FD09D00E94DA0707FC05D03EF430
:100F1000909581959F4F0895709561957F4F0895A5
:100F2000A1E21A2EAA1BBB1BFD010DC0AA1FBB1FED
:100F3000EE1FFF1FA217B307E407F50720F0A21B5F
:100F4000B30BE40BF50B661F771F881F991F1A94CC
:100F500069F760957095809590959B01AC01BD01F6
:100F6000CF010895052E97FB1EF400940E94C90737
:100F700057FD07D00E94900707FC03D04EF40C9455
:100F8000C90750954095309521953F4F4F4F5F4F82
:100F9000089590958095709561957F4F8F4F9F4FE5
:100FA0000895EE0FFF1F0024001C0BBE0790F69162
:100FB000E02D0994AA1BBB1B51E107C0AA1FBB1F50
:100FC000A617B70710F0A61BB70B881F991F5A95D5
:100FD000A9F780959095BC01CD01089510E0C1E975
:100FE000D0E004C0FE010E94D1072196C239D1078A
:060FF000C9F7F894FFCFE1
:100FF6006E656F7761792047736D206D6F64756CD0
:101006006520706F77657220636F6E74726F6C20E7
:1010160070696E7320696E697469616C697A65645A
:10102600004F4B000000000062012507D00141017E
:10103600B601E80100000000D70525074705610550
:101046005305B5050D0A006E616E00696E66006F88
:061056007666002E00008A
:00000001FF
